S00B00006164632E73726563F1
S11300000C942A000C9434000C9434000C943400A6
S11300100C9434000C9434000C9434000C9434008C
S11300200C9434000C9434000C9434000C9434007C
S11300300C9434000C9434000C9443000C9434005D
S11300400C9434000C9434000C9434000C9434005C
S11300500C94340011241FBECFE5D4E0DEBFCDBF25
S11300600E9436000C9452000C94000089E683BF71
S1130070BB9AC39A339A329A38983E9A379A3D9AE1
S11300807894369AFFCF1F920F920FB60F921124D5
S11300908F9385B18CBF369A8F910F900FBE0F90BE
S10B00A01F901895F894FFCF9E
S9030000FC
