S01000006465626F756E63652E73726563CF
S11300000C942A000C9434000C9434000C943400A6
S11300100C9434000C9434000C9434000C9434008C
S11300200C9434000C9434000C9434000C9434007C
S11300300C9434000C9434000C9434000C9434006C
S11300400C9434000C9434000C9434000C9434005C
S11300500C94340011241FBECFE5D4E0DEBFCDBF25
S11300600E9436000C9457000C9400008F98979AC5
S1130070BB9AC39A91E038E001C0922F82B3881FE3
S11300808827881F981731F0E3ECF9E03197F1F7EE
S113009000C0000080B3282F221F2227221F88239C
S11300A064F3992351F388B3832788BBE6CFF8948C
S10500B0FFCF7C
S9030000FC
