:100000000C942A000C9434000C9434000C943400AA
:100010000C9434000C9434000C9434000C94340090
:100020000C9434000C9434000C9434000C94340080
:100030000C9434000C9434000C9434000C94340070
:100040000C9434000C9434000C9434000C94340060
:100050000C94340011241FBECFE5D4E0DEBFCDBF29
:100060000E943A000C945C000C94000089E683BF67
:10007000BB9A08950E94360080E08CBFE3ECF9E063
:100080003197F1F700C000008F5F8F3FB1F7FFE7B6
:100090002AE186E0F15020408040E1F700C00000F6
:1000A0008FEF90E08CBFE3ECF9E03197F1F700C0FF
:0C00B0000000019708F3F6CFF894FFCF92
:00000001FF
